{
  "contractName": "Tickets",
  "abi": [
    {
      "inputs": [],
      "stateMutability": "nonpayable",
      "type": "constructor"
    },
    {
      "inputs": [],
      "name": "owner",
      "outputs": [
        {
          "internalType": "address",
          "name": "",
          "type": "address"
        }
      ],
      "stateMutability": "view",
      "type": "function"
    },
    {
      "inputs": [
        {
          "internalType": "uint256",
          "name": "",
          "type": "uint256"
        }
      ],
      "name": "tickets",
      "outputs": [
        {
          "internalType": "uint256",
          "name": "price",
          "type": "uint256"
        },
        {
          "internalType": "address",
          "name": "owner",
          "type": "address"
        }
      ],
      "stateMutability": "view",
      "type": "function"
    },
    {
      "inputs": [
        {
          "internalType": "uint256",
          "name": "_index",
          "type": "uint256"
        }
      ],
      "name": "buyTicket",
      "outputs": [],
      "stateMutability": "payable",
      "type": "function"
    }
  ],
  "bytecode": "0x6080604052336000806101000a81548173ffffffffffffffffffffffffffffffffffffffff021916908373ffffffffffffffffffffffffffffffffffffffff16021790555034801561005057600080fd5b5060005b600a8110156100f257662386f26fc10000600182600a8110610079576100786100f8565b5b60020201600001819055506000600182600a811061009a576100996100f8565b5b6002020160010160006101000a81548173ffffffffffffffffffffffffffffffffffffffff021916908373ffffffffffffffffffffffffffffffffffffffff16021790555080806100ea90610160565b915050610054565b506101a9565b7f4e487b7100000000000000000000000000000000000000000000000000000000600052603260045260246000fd5b7f4e487b7100000000000000000000000000000000000000000000000000000000600052601160045260246000fd5b6000819050919050565b600061016b82610156565b91507fffffffffffffffffffffffffffffffffffffffffffffffffffffffffffffffff82141561019e5761019d610127565b5b600182019050919050565b6103ef806101b86000396000f3fe6080604052600436106100345760003560e01c806350b447121461003957806367dd74ca146100775780638da5cb5b14610093575b600080fd5b34801561004557600080fd5b50610060600480360381019061005b91906102c9565b6100be565b60405161006e929190610346565b60405180910390f35b610091600480360381019061008c91906102c9565b610108565b005b34801561009f57600080fd5b506100a861026a565b6040516100b5919061036f565b60405180910390f35b600181600a81106100ce57600080fd5b600202016000915090508060000154908060010160009054906101000a900473ffffffffffffffffffffffffffffffffffffffff16905082565b600a81108015610119575060008110155b61012257600080fd5b600073ffffffffffffffffffffffffffffffffffffffff16600182600a811061014e5761014d61038a565b5b6002020160010160009054906101000a900473ffffffffffffffffffffffffffffffffffffffff1673ffffffffffffffffffffffffffffffffffffffff161461019657600080fd5b600181600a81106101aa576101a961038a565b5b60020201600001543410156101be57600080fd5b33600182600a81106101d3576101d261038a565b5b6002020160010160006101000a81548173ffffffffffffffffffffffffffffffffffffffff021916908373ffffffffffffffffffffffffffffffffffffffff1602179055503373ffffffffffffffffffffffffffffffffffffffff166108fc67016345785d8a00009081150290604051600060405180830381858888f19350505050158015610266573d6000803e3d6000fd5b5050565b60008054906101000a900473ffffffffffffffffffffffffffffffffffffffff1681565b600080fd5b6000819050919050565b6102a681610293565b81146102b157600080fd5b50565b6000813590506102c38161029d565b92915050565b6000602082840312156102df576102de61028e565b5b60006102ed848285016102b4565b91505092915050565b6102ff81610293565b82525050565b600073ffffffffffffffffffffffffffffffffffffffff82169050919050565b600061033082610305565b9050919050565b61034081610325565b82525050565b600060408201905061035b60008301856102f6565b6103686020830184610337565b9392505050565b60006020820190506103846000830184610337565b92915050565b7f4e487b7100000000000000000000000000000000000000000000000000000000600052603260045260246000fdfea2646970667358221220bae10c3ac7ca633e6d6b5ee572b0e598b249e3f9faaae38c7067fa70ec12483964736f6c634300080c0033",
  "immutableReferences": {},
  "source": "\r\npragma solidity >=0.4.22 <0.9.0;\r\n\r\nuint256 constant TOTAL_TICKETS = 10;\r\n\r\ncontract Tickets {\r\n  address public owner = msg.sender;\r\n\r\n  struct Ticket {\r\n    uint256 price;\r\n    address owner;\r\n  }\r\n\r\n  Ticket[TOTAL_TICKETS] public tickets;\r\n\r\n  constructor() {\r\n    for (uint256 i = 0; i < TOTAL_TICKETS; i++) {\r\n      tickets[i].price = 1e16; // 0.1 ETH\r\n      tickets[i].owner = address(0x0);\r\n    }\r\n  }\r\n\r\n  function buyTicket(uint256 _index) external payable {\r\n    require(_index < TOTAL_TICKETS && _index >= 0);\r\n    require(tickets[_index].owner == address(0x0));\r\n    require(msg.value >= tickets[_index].price);\r\n    tickets[_index].owner = msg.sender;\r\n    payable(msg.sender).transfer(1e17);\r\n  }\r\n}",
  "sourcePath": "C:\\Users\\harsh\\Desktop\\assignment-ganache-1\\contracts\\Tickets.sol",
  "compiler": {
    "name": "solc",
    "version": "0.8.12+commit.f00d7308.Emscripten.clang"
  },
  "schemaVersion": "3.4.6",
  "updatedAt": "2022-03-22T17:48:23.622Z",
  "devdoc": {
    "kind": "dev",
    "methods": {},
    "version": 1
  },
  "userdoc": {
    "kind": "user",
    "methods": {},
    "version": 1
  }
}